:100000000C9434000C9451000C9451000C94510049
:100010000C9451000C9451000C9451000C9451001C
:100020000C9451000C9451000C9451000C9451000C
:100030000C9451000C9451000C9451000C945100FC
:100040000C9451000C9451000C9451000C945100EC
:100050000C9451000C9451000C9451000C945100DC
:100060000C9451000C94510011241FBECFEFD8E026
:10007000DEBFCDBF11E0A0E0B1E0ECE6F9E002C0E8
:1000800005900D92A032B107D9F721E0A0E2B1E0CE
:1000900001C01D92A632B207E1F70E943E010C9406
:1000A000B4040C9400002C9898E0882314F42D9A42
:1000B00001C02D98880F2C9A2C989150B1F7089573
:1000C000289A289A289808950E9453002D980E94F3
:1000D000600085ED8A95F1F7000008950E945300B5
:1000E0002D9A0E9460008AEE8A95F1F700C008956B
:1000F0000E946E0080E090E0089582E00E9464001B
:100100008FE39FE10197F1F700C00000089581E3BC
:1001100084B980E091E090932301809322012FEF36
:1001200086E791E0215080409040E1F700C0000058
:1001300088E30E94640088E00E94640081E00E94DD
:1001400064008FE39FE10197F1F700C0000086E0B3
:100150000E9464000E947D008CE00E94640008956B
:10016000813019F0823031F008958FE7860F0E94B8
:10017000640008958FEB860F0E946400089581E06B
:100180000E9464008FE39FE10197F1F700C0000037
:10019000089581309105B1F01CF4892B39F0089550
:1001A00082309105D9F0039729F10895862F0E9496
:1001B0007E0180E00E94AE0180E00E94AE010E94BC
:1001C000A5010895862F0E947E0184E00E94AE0161
:1001D00080E00E94AE010E94A5010895862F0E9432
:1001E0007E018CE10E94AE0180E20E94AE010E947D
:1001F000A5010895862F0E947E018CE10E94AE0128
:1002000080E60E94AE010E94A5010895CF93DF937E
:10021000C42F892B61F0842F0E947E0180E00E9410
:10022000AE0184E00E94AE010E94A5010BC0842FA4
:100230000E947E0180E00E94AE0183E00E94AE0138
:100240000E94A5018C2F0E947E018FE80E94AE01C2
:1002500085E38A95F1F7000081E08C0F0E947E0112
:100260000E94C001D82F0E94CB01C82F0E94A50177
:100270008C2F90E09D2BDF91CF9108950E94780103
:1002800062E670E080E090E00E94C9000E94870072
:100290000E94BF0061E081E00E94B0008EE091E02A
:1002A0009F938F930E94D6010F900F90C9E1D1E0E8
:1002B0006CE081E00E94B00042E650E061E070E056
:1002C00081E090E00E9406019F938F93DF93CF938C
:1002D0000E94D6019FEF23ED80E3915020408040A3
:1002E000E1F700C000000F900F900F900F90E0CF4B
:1002F0001092B9008CE08093B800089594EA90932E
:10030000BC00ECEBF0E090819923ECF79091B90000
:10031000987F983011F09031A1F48093BB0084E86D
:100320008093BC00ECEBF0E080818823ECF79091A7
:10033000B900987F983139F081E0903429F480E059
:10034000089581E0089580E0089584E98093BC00D9
:10035000ECEBF0E0808184FDFDCF08958093BB003D
:1003600084E88093BC00ECEBF0E080818823ECF71C
:100370009091B900987F81E0983209F480E0089567
:1003800084EC8093BC00ECEBF0E080818823ECF7F8
:100390008091BB00089584E88093BC00ECEBF0E012
:1003A00080818823ECF78091BB000895A0E0B0E045
:1003B000ECEDF1E00C948D04AE014B5F5F4FFA0160
:1003C00061917191AF0180912201909123010E946E
:1003D000EC01E2E00C94A904ABE0B0E0E2EFF1E064
:1003E0000C947D046C017B018A01FC01178216824A
:1003F000838181FFCCC1CE0101963C01F60193813E
:10040000F70193FD859193FF81917F01882309F482
:10041000BAC1853239F493FD859193FF81917F01B3
:10042000853229F4B60190E00E94E303E7CF912CD6
:10043000212C312CFFE1F315D8F08B3279F038F410
:10044000803279F08332A1F4232D20611DC08D32DA
:1004500061F0803369F4232D216016C0832D826002
:10046000382EE32DE4603E2E2AC0F32DF8601DC027
:1004700037FC2DC020ED280F2A3040F08E32B9F421
:1004800036FC81C1232D2064322E19C036FE06C0F1
:100490008AE0989E200D1124922E11C0EAE02E9E33
:1004A000200D1124222EF32DF0623F2E08C08C3631
:1004B00021F4832D8068382E02C0883641F4F7017C
:1004C00093FD859193FF81917F018111B3CF982F87
:1004D0009F7D9554933028F40C5F1F4F9FE39983C1
:1004E0000DC0833631F0833771F0833509F059C080
:1004F00021C0F801808189830E5F1F4F8824839477
:10050000912C530113C02801F2E04F0E511CF80149
:10051000A080B18036FE03C0692D70E002C06FEF8D
:100520007FEFC5010E94D8034C018201F32DFF77B4
:100530003F2E16C0280122E0420E511CF801A08077
:10054000B18036FE03C0692D70E002C06FEF7FEF0F
:10055000C5010E94CD034C01F32DF0683F2E8201AE
:1005600033FC1BC0822D90E088169906B0F4B601CA
:1005700080E290E00E94E3032A94F4CFF50137FC77
:10058000859137FE81915F01B60190E00E94E303FF
:1005900021102A9421E0821A91088114910471F7A4
:1005A000E8C0843611F0893641F5F80137FE07C0FE
:1005B00060817181828193810C5F1F4F08C06081CF
:1005C0007181072E000C880B990B0E5F1F4FF32DC6
:1005D000FF763F2E97FF09C09095809570956195A5
:1005E0007F4F8F4F9F4FF0683F2E2AE030E0A301EE
:1005F0000E941F04882E861845C0853731F4232DAC
:100600002F7EB22E2AE030E025C0932D997FB92E9F
:100610008F36C1F018F4883579F0B5C0803719F0FD
:10062000883721F0B0C0E92FE061BE2EB4FE0DC0C6
:10063000FB2DF460BF2E09C034FE0AC0292F2660AE
:10064000B22E06C028E030E005C020E130E002C054
:1006500020E132E0F801B7FE07C06081718182813C
:1006600093810C5F1F4F06C06081718180E090E034
:100670000E5F1F4FA3010E941F04882E8618FB2DBA
:10068000FF773F2E36FE0DC0232D2E7FA22E89141C
:1006900058F434FE0BC032FC09C0832D8E7EA82E88
:1006A00005C0B82CA32C03C0B82C01C0B92CA4FEE3
:1006B0000FC0FE01E80DF11D8081803321F49A2DD9
:1006C000997EA92E09C0A2FE06C0B394B39404C0BB
:1006D0008A2D867809F0B394A3FC11C0A0FE06C051
:1006E000B21488F4280C922C9B180EC0B21460F43B
:1006F000B60180E290E00E94E303B394F7CFB21416
:1007000018F42B1802C0982C212CA4FE10C0B6019E
:1007100080E390E00E94E303A2FE17C0A1FC03C0A7
:1007200088E790E002C088E590E0B6010CC08A2D11
:10073000867859F0A1FE02C08BE201C080E2A7FCDE
:100740008DE2B60190E00E94E303891438F4B6010B
:1007500080E390E00E94E3039A94F7CF8A94F30138
:10076000E80DF11D8081B60190E00E94E303811045
:10077000F5CF222009F442CEB60180E290E00E943B
:10078000E3032A94F6CFF6018681978102C08FEFAA
:100790009FEF2B96E2E10C949904FC0105906150C7
:1007A00070400110D8F7809590958E0F9F1F089587
:1007B000FC016150704001900110D8F78095909530
:1007C0008E0F9F1F08950F931F93CF93DF93FB010D
:1007D000238121FD03C08FEF9FEF2CC022FF16C0A5
:1007E00046815781248135814217530744F4A08103
:1007F000B1819D012F5F3F4F318320838C932681F0
:1008000037812F5F3F4F3783268314C08B01EC0164
:10081000FB010084F185E02D0995892BE1F6D801D3
:1008200016968D919C911797019617969C938E938F
:100830001697CE01DF91CF911F910F910895FA0184
:10084000AA27283051F1203181F1E8946F936E7F0F
:100850006E5F7F4F8F4F9F4FAF4FB1E03ED0B4E000
:100860003CD0670F781F891F9A1FA11D680F791F41
:100870008A1F911DA11D6A0F711D811D911DA11D52
:1008800020D009F468943F912AE0269F1124301962
:10089000305D3193DEF6CF010895462F4770405DFD
:1008A0004193B3E00FD0C9F7F6CF462F4F70405DAC
:1008B0004A3318F0495D31FD4052419302D0A9F707
:1008C000EACFB4E0A6959795879577956795BA9501
:1008D000C9F700976105710508959B01AC010A2EC7
:1008E00006945795479537952795BA95C9F7620F9E
:1008F000731F841F951FA01D08952F923F924F9242
:100900005F926F927F928F929F92AF92BF92CF929F
:10091000DF92EF92FF920F931F93CF93DF93CDB7A8
:10092000DEB7CA1BDB0B0FB6F894DEBF0FBECDBF20
:1009300009942A88398848885F846E847D848C84F1
:100940009B84AA84B984C884DF80EE80FD800C81FA
:100950001B81AA81B981CE0FD11D0FB6F894DEBFDD
:0C0960000FBECDBFED010895F894FFCF4D
:10096C000000000200000000780000000000446954
:10097C007374616E63653A2000256420636D00001A
:00000001FF
